{
  "transactions": [
    {
      "hash": "0xb634c64ae4d35690a745261ba460da7a219de272f3eab27cfd9c74d8fdfb5af5",
      "transactionType": "CALL",
      "contractName": null,
      "contractAddress": "0x779877a7b0d9e8603169ddbd7836e478b4624789",
      "function": "transferAndCall(address,uint256,bytes)",
      "arguments": [
        "0x9DdfaCa8183c41ad55329BdeeD9F6A8d53168B1B",
        "3000000000000000000",
        "0xe22a4f27ac66ce403a4fcea7fbcb4b31f81719c59089a808ae283151d8d95a26"
      ],
      "transaction": {
        "from": "0xce77ee91c2b890f7c0a6d4dabd17f82e3c157920",
        "to": "0x779877a7b0d9e8603169ddbd7836e478b4624789",
        "gas": "0x1c1ff",
        "value": "0x0",
        "input": "0x4000aea00000000000000000000000009ddfaca8183c41ad55329bdeed9f6a8d53168b1b00000000000000000000000000000000000000000000000029a2241af62c000000000000000000000000000000000000000000000000000000000000000000600000000000000000000000000000000000000000000000000000000000000020e22a4f27ac66ce403a4fcea7fbcb4b31f81719c59089a808ae283151d8d95a26",
        "nonce": "0x3",
        "chainId": "0xaa36a7"
      },
      "additionalContracts": [],
      "isFixedGasLimit": false
    }
  ],
  "receipts": [
    {
      "status": "0x1",
      "cumulativeGasUsed": "0x19d232f",
      "logs": [
        {
          "address": "0x779877a7b0d9e8603169ddbd7836e478b4624789",
          "topics": [
            "0xddf252ad1be2c89b69c2b068fc378daa952ba7f163c4a11628f55a4df523b3ef",
            "0x000000000000000000000000ce77ee91c2b890f7c0a6d4dabd17f82e3c157920",
            "0x0000000000000000000000009ddfaca8183c41ad55329bdeed9f6a8d53168b1b"
          ],
          "data": "0x00000000000000000000000000000000000000000000000029a2241af62c0000",
          "blockHash": "0x1328b6f0d5c830f835b57fc03c3ac133598b74be6f3bb88b0ea4161fa8cf55f3",
          "blockNumber": "0x6dc250",
          "transactionHash": "0xb634c64ae4d35690a745261ba460da7a219de272f3eab27cfd9c74d8fdfb5af5",
          "transactionIndex": "0x10a",
          "logIndex": "0x2dd",
          "removed": false
        },
        {
          "address": "0x779877a7b0d9e8603169ddbd7836e478b4624789",
          "topics": [
            "0xe19260aff97b920c7df27010903aeb9c8d2be5d310a2c67824cf3f15396e4c16",
            "0x000000000000000000000000ce77ee91c2b890f7c0a6d4dabd17f82e3c157920",
            "0x0000000000000000000000009ddfaca8183c41ad55329bdeed9f6a8d53168b1b"
          ],
          "data": "0x00000000000000000000000000000000000000000000000029a2241af62c000000000000000000000000000000000000000000000000000000000000000000400000000000000000000000000000000000000000000000000000000000000020e22a4f27ac66ce403a4fcea7fbcb4b31f81719c59089a808ae283151d8d95a26",
          "blockHash": "0x1328b6f0d5c830f835b57fc03c3ac133598b74be6f3bb88b0ea4161fa8cf55f3",
          "blockNumber": "0x6dc250",
          "transactionHash": "0xb634c64ae4d35690a745261ba460da7a219de272f3eab27cfd9c74d8fdfb5af5",
          "transactionIndex": "0x10a",
          "logIndex": "0x2de",
          "removed": false
        },
        {
          "address": "0x9ddfaca8183c41ad55329bdeed9f6a8d53168b1b",
          "topics": [
            "0x1ced9348ff549fceab2ac57cd3a9de38edaaab274b725ee82c23e8fc8c4eec7a",
            "0xe22a4f27ac66ce403a4fcea7fbcb4b31f81719c59089a808ae283151d8d95a26"
          ],
          "data": "0x000000000000000000000000000000000000000000000000000000000000000000000000000000000000000000000000000000000000000029a2241af62c0000",
          "blockHash": "0x1328b6f0d5c830f835b57fc03c3ac133598b74be6f3bb88b0ea4161fa8cf55f3",
          "blockNumber": "0x6dc250",
          "transactionHash": "0xb634c64ae4d35690a745261ba460da7a219de272f3eab27cfd9c74d8fdfb5af5",
          "transactionIndex": "0x10a",
          "logIndex": "0x2df",
          "removed": false
        }
      ],
      "logsBloom": "0x00000004000000000000000000400000000001000020000000000000020000000000000000000000000000000004000000000000000000000000000000000000000000000000000000200008000000000000000000000000000020000020000008000000000000000000000000000000000000000000000000000010000040000000000000000000000000010000800000000020000000800000000000000000000000000000000000000000010000000000000000000000000004000400000000000002000000000000000000000000000000000000000100000000000000000010000000000000800000000000000000000000000000000000000000000000",
      "type": "0x2",
      "transactionHash": "0xb634c64ae4d35690a745261ba460da7a219de272f3eab27cfd9c74d8fdfb5af5",
      "transactionIndex": "0x10a",
      "blockHash": "0x1328b6f0d5c830f835b57fc03c3ac133598b74be6f3bb88b0ea4161fa8cf55f3",
      "blockNumber": "0x6dc250",
      "gasUsed": "0x133b1",
      "effectiveGasPrice": "0x1cf9a493",
      "from": "0xce77ee91c2b890f7c0a6d4dabd17f82e3c157920",
      "to": "0x779877a7b0d9e8603169ddbd7836e478b4624789",
      "contractAddress": null
    }
  ],
  "libraries": [],
  "pending": [],
  "returns": {},
  "timestamp": 1733104094,
  "chain": 11155111,
  "commit": "889b838"
}